:020000040800F2
:10000000580B0020290200081F0F00085D0E000891
:100010001D0F00081F040008151300080000000051
:10002000000000000000000000000000230F000896
:100030002104000800000000210F0008250F00081F
:10004000430200084302000843020008430200087C
:10005000430200084302000843020008430200086C
:10006000430200084302000843020008430200085C
:10007000430200084302000843020008430200084C
:10008000430200084302000843020008430200083C
:10009000430200084302000843020008430200082C
:1000A000430200084302000843020008430200081C
:1000B000430200084302000843020008430200080C
:1000C00043020008430200084302000843020008FC
:1000D00043020008430200084302000843020008EC
:1000E00043020008430200084302000843020008DC
:1000F00043020008430200084302000843020008CC
:1001000043020008430200084302000843020008BB
:1001100043020008430200084302000843020008AB
:10012000430200084302000843020008430200089B
:10013000430200084302000843020008430200088B
:10014000430200084302000843020008430200087B
:10015000430200084302000843020008430200086B
:10016000430200084302000843020008430200085B
:100170004302000843020008430200080000000098
:10018000430200084302000800F002F800F03CF8C7
:100190000AA090E8000C82448344AAF10107DA45E2
:1001A00001D100F031F8AFF2090EBAE80F0013F0F8
:1001B000010F18BFFB1A43F001031847EC110000B0
:1001C0000C120000103A24BF78C878C1FAD8520740
:1001D00024BF30C830C144BF04680C6070470000C1
:1001E0000023002400250026103A28BF78C1FBD840
:1001F000520728BF30C148BF0B6070471FB501F0E0
:10020000C5F81FBD10B510BD00F0CFF81146FFF7BF
:10021000F5FF01F091F800F0EDF803B4FFF7F2FFFD
:1002200003BC00F0F5F80000094880470948004782
:10023000FEE7FEE7FEE7FEE7FEE7FEE7FEE7FEE796
:10024000FEE7FEE704480549054A064B70470000F3
:10025000D10F00088901000858050020580B002024
:10026000580700205807002053EA020C00F069806C
:100270002DE9F04B4FF00006002B1FBFB3FA83F5BA
:1002800003FA05F424FA05F65E4012BF1643B2FAEB
:1002900082F502FA05F4C5F120051EBF22FA05FC1D
:1002A00044EA0C04203556EA044C4FEA144418BFC3
:1002B000641C4FF000084FF00009904271EB030CF2
:1002C00039D3002919BFB1FA81F701FA07F6B0FA5C
:1002D00080F700FA07F6C7F120071EBF20FA07FCD7
:1002E00046EA0C062037B6FBF4FCA7EB0507103FE7
:1002F00007F01F0BCBF120060CFA0BFB2CFA06F6CD
:1003000044BFB3460026202FA4BF5E464FF0000B2B
:100310005BEA060C08BF4FF0010B19EB0B09ABFBB6
:10032000027C48EB0608C01B06FB02CC0BFB03CC8F
:1003300071EB0C01C1E70B46024641464846BDE859
:10034000F08B13B54FF000004FF00001AFF30080C9
:10035000BDE81C4070474FF0000200B513469446BC
:100360009646203922BFA0E80C50A0E80C50B1F10D
:100370002001BFF4F7AF090728BFA0E80C5048BF21
:100380000CC05DF804EB890028BF40F8042B08BFBF
:10039000704748BF20F8022B11F0804F18BF00F8BB
:1003A000012B7047704770477047754600F02CF876
:1003B000AE4605006946534620F00700854618B052
:1003C00020B5FFF73FFFBDE820404FF000064FF09B
:1003D00000074FF000084FF0000B21F00701AC467A
:1003E000ACE8C009ACE8C009ACE8C009ACE8C00999
:1003F0008D46704710B50446AFF300802046BDE837
:100400001040FFF70ABF000000487047F4040020C6
:1004100001491820ABBEFEE7260002007047FEE748
:100420007047000070B5044600F00CF90546601CEA
:1004300002D004480078044400F004F9401BA042B4
:10044000FAD370BD000000202DE9F84FDFF8BCA101
:100450000022012503264FF00F090AF1040BAAF12F
:10046000040E00BF0B6805FA02F42340A34270D1CA
:100470000F7907F00307012F01D0022F16D18768EB
:100480004FEA420806FA08FC27EA0C07D1F80CC02C
:100490000CFA08FC4CEA070CC0F808C04768A743F0
:1004A0000C79C4F3001494403C4344600C79E44359
:1004B000A4070AD0C4684FEA420C06FA0CF7BC4302
:1004C0008F6807FA0CF72743C7600C7904F0030420
:1004D000022C12D1D40800EB840CDCF82040570722
:1004E000FF0E09FA07F824EA0804D1F8108008FA88
:1004F00007F848EA0408CCF8208004684FEA420C68
:1005000006FA0CF7BC430F7907F0030707FA0CF75C
:10051000274307604C6814F4403F70D03C4C276878
:1005200047F480472760246822F0030704F48044DE
:100530000094384C07EB040CDCF8084897074FEAA6
:10054000177809FA08F7BC43334FB84202D10027A5
:1005500024E054E0314FB84201D101271EE0304F72
:10056000B84201D1022719E02E4FB84201D103272A
:1005700014E02D4FB84201D104270FE02B4FB842B1
:1005800001D105270AE02A4FB84201D1062705E02C
:10059000284FB84201D1072700E0082707FA08F7DB
:1005A0002743CCF80878DAF800405746D1F804C061
:1005B0009C435FEACC2C00D51C433C60DBF8004038
:1005C0005F46D1F804C09C435FEA8C2C00D51C43E5
:1005D0003C60DEF800407746D1F804C09C435FEAF7
:1005E0008C3C00D51C433C60084F083F3C68D1F868
:1005F00004C09C435FEACC3C00D51C433C60521CC9
:10060000102AFFF42FAFBDE8F88F0000083C01402E
:100610004438024000300140000002400004024023
:1006200000080240000C024000100240001402408A
:1006300000180240001C02400AB1816170470904A1
:10064000FBE70000014880687047000000000020C0
:1006500002488168027811448160704700000020E0
:100660000B4810B5016841F400710160016841F464
:1006700080610160016841F480710160032000F035
:1006800061F80F2000F006F800F024F8002010BDFB
:10069000003C024070B50D4D04464FF47A71287845
:1006A000B1FBF0F00A490968B1FBF0F000F0C2FBC1
:1006B00048B9102C07D200222146501E00F022F823
:1006C00000206C6070BD012070BD000000000020A3
:1006D0000C0000200A4808B5016841F4804101601F
:1006E000006800F4804000900548001F016841F058
:1006F00080510160006800F08050009008BD00004B
:1007000044380240F0B40E4B1B680C46C3F302237E
:10071000C3F10705042D00D90425191D072901D2AD
:10072000002300E0DB1E012606FA05F1491E2140E8
:1007300099409E40761E16403143F0BC00F0EBBD60
:100740000CED00E0064900F0070208684FF6FF03D1
:10075000184040EA0220034A104308607047000036
:100760000CED00E00000FA05F8B5040005D094F89F
:1007700095042668002510B106E00120F8BD84F834
:100780009454204600F056F8032084F89504B6F1FE
:10079000A04F00D1A571206800F04EFD207C8DF89F
:1007A000000094E80F0000F01BFC0226B8BB0021FB
:1007B000206800F081FD90BB002001270DE000BF04
:1007C00000EBC00104EB81014F750875C8850D76FB
:1007D000CD610D62401CC0B24D6221798142EFD8DB
:1007E000002011E000EBC00104EB810181F85552BB
:1007F00081F8540281F85852C1F85C52C1F8605235
:10080000401CC0B2C1F8645221798142EAD8207CF0
:100810008DF8000094E80F0000F050FC10B184F84F
:100820009564AAE7657484F89574206800F038FC34
:100830000020F8BD10B586B0044614216846FFF7C5
:100840008AFD2068B0F1A04F27D115480021026829
:1008500042F001020260006800F0010005904FF4D0
:10086000C05000900220CDE90101032003900A202E
:10087000049069460B48FFF7E7FD0948001D016831
:1008800041F08001016006481430016841F4804164
:100890000160006800F48040059006B010BD0000C3
:1008A00030380240000002402DE9F0470E460500B6
:1008B00065D0DFF81481D8F80000F7B200F0070027
:1008C000B04207D288F80070D8F8000000F00700A6
:1008D000B04254D128683D4C810712D5400703D55A
:1008E000206840F4E05020602878000703D5206895
:1008F00040F4604020602068A96820F0F0000843C0
:1009000020602878C0072DD0304968680839012850
:1009100012D0022813D0032811D0096889070029B2
:100920002DDA216821F0030101432160FFF78AFEDF
:10093000814641F2883A0EE009688903EFE70968C9
:100940008901ECE7FFF77EFEA0EB0901514502D9D2
:100950000320BDE8F0872068696800F00C00B0EB68
:10096000810FEFD1D8F80010404601F00701B142E5
:1009700007D90770006800F00700B04201D00120DD
:10098000E7E72878400705D52068E96820F4E050BB
:10099000084320602878000706D52068296920F4DC
:1009A000604040EAC100206000F018F82168084A61
:1009B000C1F30311515CC84006490860064800684D
:1009C000FFF768FE0020C4E7003C02400838024000
:1009D000961300080C00002004000020154810B5F4
:1009E000006810F00C02144813D04110042A0FD0F4
:1009F000082A0ED10F4C241F2268236802F03F0200
:100A00005B0207D52068C0F38810A0FB010106E057
:100A1000084610BD2168C1F38811A1FB0001002325
:100A2000FFF722FC2168C1F30141491C4900B0FBDA
:100A3000F1F010BD083802400024F400F0B51F4C5E
:100A400016460D461D4B002102220327283C002894
:100A5000186887B019D040F004001860186800F0DA
:100A60000400059010020090CDE90121CDE9037149
:100A700069461348FFF7E8FC206845EAC60120F004
:100A800078400843206007B0F0BD40F001001860D6
:100A9000186800F0010005904FF480700090CDE9D7
:100AA0000121CDE9037169460648FFF7CDFC2068B6
:100AB000354320F0EC602843E4E700003038024082
:100AC00000080240000002402DE9F84F04006ED0FB
:100AD0002078DFF84C93C007A9F104054AD009F14A
:100AE00004000168C1F38101012908D00068C0F346
:100AF000810002280AD1D9F80000400206D52868F2
:100B0000800337D560680028E1D033E06068B0F535
:100B1000803F10D0B0F5A02F286810D020F480308E
:100B20002860286820F4802028606068A8B1FFF75A
:100B300089FD06460DE0286840F48030F4E740F473
:100B400080202860F7E700BFFFF77CFD801B64284A
:100B500073D828688003F7D50CE0FFF773FD0646CD
:100B600005E000BFFFF76EFD801B6428F0D8286801
:100B70008003F7D42078DFF8AC8280074FF0000ABA
:100B80003ED5A748001D016811F00C0F08D0006881
:100B9000C0F3810002280BD1D9F80000400207D42D
:100BA0002868800716D5E068012800D112E033E1FB
:100BB000E068B8B10120C8F80000FFF743FD064621
:100BC00005E000BFFFF73EFD801B0228C0D8286863
:100BD0008007F7D52868216920F0F80040EAC100B5
:100BE00028600DE0C8F800A0FFF72CFD064604E0E1
:100BF000FFF728FD801B02281FD828688007F7D43C
:100C00002078000722D5864F87486169703771B117
:100C100001210160FFF716FD064604E0FFF712FD13
:100C2000801B022809D838688007F7D50EE0C0F885
:100C300000A0FFF707FD064605E082E0FFF702FD92
:100C4000801B02287DD838688007F7D420784007B9
:100C500068D5DFF8CCB100270BF13C0BDBF80000C6
:100C6000C0000BD4DBF8001041F08051CBF800102D
:100C7000DBF80000012700F0805000906B4E3068D8
:100C8000C00510D4306840F480703060FFF7DAFCA3
:100C9000009005E0FFF7D6FC0099401A022850D8D2
:100CA0003068C005F6D55E4EA0686C3601280FD0BE
:100CB0000528306810D020F001003060306820F046
:100CC00004003060A068B8B1FFF7BCFC00900FE0F2
:100CD000306840F00100F4E740F004003060F7E7CE
:100CE000FFF7B0FC0099411A41F28830814266D882
:100CF00030688007F4D50EE0FFF7A4FC009007E011
:100D0000FFF7A0FC0099411A41F28830814256D881
:100D100030688007F4D42FB1DBF8001021F0805147
:100D2000CBF80010A069C8B33D49091D0968C1F39B
:100D3000810102294AD00228504607D0C8F8600035
:100D400000E03CE0FFF77EFC04463BE04746C8F885
:100D50006000FFF777FC064605E000BFFFF772FC76
:100D6000801B02282BD828688001F7D4D4E907011A
:100D70000843A16A2E4A490802EB0141626A41EA2E
:100D80008211084394F82C1040EA0161C9F8001060
:100D900001203866FFF756FC044606E03EE000BF3F
:100DA000FFF750FC001B022809D828688001F7D5FE
:100DB00034E000BFFFF746FC001B022802D90320E5
:100DC000BDE8F88F28688001F4D427E00128F7D027
:100DD000D9F80000E26900F4800191421CD1226A36
:100DE00000F03F01914217D147F6C071626A01409D
:100DF000B1EB821F10D1A26A4FF0FF3300F44031F3
:100E000003EB5202B1EB024F06D194F82C1000F024
:100E10007060B0EB016F01D00120D1E70020CFE777
:100E20000438024000004742800E474200700040F4
:100E30000000FFFF10B5401EB0F1807F01D30120FC
:100E400010BD4FF0E02460610F21601700F063FADD
:100E50000020A06107202061002010BDFEE70000F7
:100E600070B586B014216846FFF775FA1C48002457
:100E7000016841F004010160016801F0040105917D
:100E8000016841F080010160016801F08001059175
:100E9000016841F0010101600068124E00F001009C
:100EA0004FF4C0650590012229463046FFF7C4FB88
:100EB000B01500900220CDE9010403946946304644
:100EC0000494FFF7C1FA01210320CDE90210CDE916
:100ED000005169463046FFF7B7FA06B070BD000012
:100EE00030380240000002400B4810B54FF0A041DE
:100EF0000160042101710222C271002181714272DC
:100F00008172C17201738173C173FFF72DFC0028D8
:100F100001D072B6FEE710BD10000020FEE7FEE72C
:100F200070477047FFF794BB30B593B030216846E7
:100F3000FFF711FA14210CA8FFF70DFA224800253B
:100F4000016841F080510160006800F0805011900C
:100F50001E48016841F4804101600068022400F4E9
:100F600080401190032000904FF4803001900120C8
:100F70000390102004908004CDE9064008200890DA
:100F8000C020CDE9090404200B906846FFF79CFDC2
:100F900008B172B6FEE70CA90F2081E831004FF4CA
:100FA000A0500F904FF48050109003210CA8FFF731
:100FB0007BFC08B172B6FEE7002211461046FFF72F
:100FC0003DFD13B030BD00004038024000700040CD
:100FD0000248016841F470010160704788ED00E04B
:100FE00070B50D460446C2F3072104981E46012938
:100FF0001BD0E06840F04000E060204600F032F88E
:10100000C6F307210029A16B26D021F48031A1630A
:10101000C5F30741012907D1A16841F00601A1608C
:10102000A16841F02001A16070BDA16B21F4803165
:10103000A163E1680A4A1140E160E16821F44011CE
:10104000E160C0B2012803D1E06840F48010E060A4
:10105000204600F007F8DBE741F48031D7E70000D5
:10106000BFFFBDFF08B500214FF070620091009BEB
:101070005B1C009393420CD80369002BF7DA0091B4
:10108000016941F0010101610099491C00919142FF
:1010900001D9032008BD0169C907F5D1002008BDA9
:1010A000D0F8001E21F00301C0F8001ED0F804188B
:1010B00041F00201C0F80418002070472DE9F04FFC
:1010C00000250E46044617462846294604EB8002B2
:1010D000C2F80411401C0F28F8D3C3F307405FEA9D
:1010E0000009204616D0806B20F40012A263A06B8A
:1010F00040F40022A263084688462146C4F8000E48
:10110000C7F30720012817D00846D1F8001841F08E
:10111000030118E0D0F8040840F00202C4F80428E3
:10112000A06B40F40012A263A06B20F40022A26323
:10113000A06B20F48022DDE7300E0846D1F80018BD
:1011400001D041F00101C0F80018102100F096F81C
:1011500000B10125204600F075F800B10125404698
:10116000C4F81088C4F81488C4F81C8800214FF013
:10117000006B4FF0904E4FF67F3AF2B215E000BF91
:1011800004EB4113D3F800C9BCF1000F06DA11B12A
:10119000C3F800E904E0C4F800B901E0C3F80009AD
:1011A000C3F81009C3F808A9491C8A42E8D80021ED
:1011B00015E000BF04EB4113D3F800CBBCF1000FE6
:1011C00006DA11B1C3F800EB04E0C4F800BB01E09B
:1011D000C3F8000BC3F8100BC3F808AB491C8A42D4
:1011E000E8D8D4F8101821F48072C4F81028A0614F
:1011F0006FF080406061C6F3074018B9A06940F005
:101200001000A061A0690A490843A061C7F3074024
:1012100018B1A06940F00800A061B9F1010F03D135
:10122000A06904490843A0612846BDE8F08F00008A
:1012300000383C8004000040816821F00101816099
:101240000020704708B500214FF070620091009BAC
:101250005B1C009393420AD80369002BF7DA0091D4
:10126000102101610099491C0091914201D903208C
:1012700008BD0169C906F5D4002008BD18B50022D3
:101280004FF070630092009C641C00949C420CD848
:101290000469002CF7DA0092202242EA81110161F0
:1012A0000099491C0091994201D9032018BD016998
:1012B0008906F5D4002018BD70B50446C068002525
:1012C00020F0C040E060012901D079B120E0E06861
:1012D00040F00050E0600A20FFF7A4F860690A358A
:1012E00010F0010F10D1C82DF5D30DE0E06840F0EB
:1012F0008040E0600A20FFF795F860690A3510F039
:10130000010F01D0C82DF5D3C82D01D0002070BD2C
:10131000012070BDFEE70907090E002804DB00F17B
:10132000E02080F80014704700F00F0000F1E0208A
:1013300080F8141D70470000FFF792F9FFF7F4FDE5
:10134000FFF78EFDFFF7D0FD0F4C4FF4007625150B
:10135000002231462046FFF76FF901222946204638
:10136000FFF76AF96420FFF75DF801223146204655
:10137000FFF762F9002229462046FFF75DF9642055
:10138000FFF750F8E4E70000000002404FF0407023
:10139000E1EE100A704700000000000000000102AA
:1013A0000304060708090000C81300080000002015
:1013B00010000000C4010008D8130008100000202D
:1013C000480B0000E00100080100000010000000D0
:0813D000000000000024F400FD
:040000050800018965
:00000001FF
